{
  "contractName": "ChainList",
  "abi": [
    {
      "constant": true,
      "inputs": [
        {
          "name": "",
          "type": "uint256"
        }
      ],
      "name": "articles",
      "outputs": [
        {
          "name": "seller",
          "type": "address"
        },
        {
          "name": "buyer",
          "type": "address"
        },
        {
          "name": "name",
          "type": "string"
        },
        {
          "name": "description",
          "type": "string"
        },
        {
          "name": "price",
          "type": "uint256"
        },
        {
          "name": "id",
          "type": "uint256"
        }
      ],
      "payable": false,
      "stateMutability": "view",
      "type": "function"
    },
    {
      "anonymous": false,
      "inputs": [
        {
          "indexed": true,
          "name": "_id",
          "type": "uint256"
        },
        {
          "indexed": true,
          "name": "_seller",
          "type": "address"
        },
        {
          "indexed": false,
          "name": "_name",
          "type": "string"
        },
        {
          "indexed": false,
          "name": "_price",
          "type": "uint256"
        }
      ],
      "name": "LogSellArticle",
      "type": "event"
    },
    {
      "anonymous": false,
      "inputs": [
        {
          "indexed": true,
          "name": "_id",
          "type": "uint256"
        },
        {
          "indexed": true,
          "name": "_seller",
          "type": "address"
        },
        {
          "indexed": true,
          "name": "_buyer",
          "type": "address"
        },
        {
          "indexed": false,
          "name": "_name",
          "type": "string"
        },
        {
          "indexed": false,
          "name": "_price",
          "type": "uint256"
        }
      ],
      "name": "LogBuyArticle",
      "type": "event"
    },
    {
      "constant": false,
      "inputs": [],
      "name": "kill",
      "outputs": [],
      "payable": false,
      "stateMutability": "nonpayable",
      "type": "function"
    },
    {
      "constant": false,
      "inputs": [
        {
          "name": "_name",
          "type": "string"
        },
        {
          "name": "_description",
          "type": "string"
        },
        {
          "name": "_price",
          "type": "uint256"
        }
      ],
      "name": "sellArticle",
      "outputs": [],
      "payable": false,
      "stateMutability": "nonpayable",
      "type": "function"
    },
    {
      "constant": false,
      "inputs": [
        {
          "name": "_id",
          "type": "uint256"
        }
      ],
      "name": "buyArticle",
      "outputs": [],
      "payable": true,
      "stateMutability": "payable",
      "type": "function"
    },
    {
      "constant": true,
      "inputs": [],
      "name": "getNumOfArticles",
      "outputs": [
        {
          "name": "",
          "type": "uint256"
        }
      ],
      "payable": false,
      "stateMutability": "view",
      "type": "function"
    },
    {
      "constant": true,
      "inputs": [],
      "name": "getArticlesForSale",
      "outputs": [
        {
          "name": "",
          "type": "uint256[]"
        }
      ],
      "payable": false,
      "stateMutability": "view",
      "type": "function"
    }
  ],
  "bytecode": "0x6060604052336000806101000a81548173ffffffffffffffffffffffffffffffffffffffff021916908373ffffffffffffffffffffffffffffffffffffffff160217905550610c10806100536000396000f300606060405260043610610078576000357c0100000000000000000000000000000000000000000000000000000000900463ffffffff1680631cc4baa81461007d57806341c0e1b5146100955780634a026f73146100aa5780637f6be3da146100d3578063d26095151461013d578063edcfafe6146101e6575b600080fd5b610093600480803590602001909190505061039c565b005b34156100a057600080fd5b6100a8610684565b005b34156100b557600080fd5b6100bd610719565b6040518082815260200191505060405180910390f35b34156100de57600080fd5b6100e6610723565b6040518080602001828103825283818151815260200191508051906020019060200280838360005b8381101561012957808201518184015260208101905061010e565b505050509050019250505060405180910390f35b341561014857600080fd5b6101e4600480803590602001908201803590602001908080601f0160208091040260200160405190810160405280939291908181526020018383808284378201915050505050509190803590602001908201803590602001908080601f0160208091040260200160405190810160405280939291908181526020018383808284378201915050505050509190803590602001909190505061088b565b005b34156101f157600080fd5b6102076004808035906020019091905050610ab1565b604051808773ffffffffffffffffffffffffffffffffffffffff1673ffffffffffffffffffffffffffffffffffffffff1681526020018673ffffffffffffffffffffffffffffffffffffffff1673ffffffffffffffffffffffffffffffffffffffff16815260200180602001806020018581526020018481526020018381038352878181546001816001161561010002031660029004815260200191508054600181600116156101000203166002900480156103045780601f106102d957610100808354040283529160200191610304565b820191906000526020600020905b8154815290600101906020018083116102e757829003601f168201915b50508381038252868181546001816001161561010002031660029004815260200191508054600181600116156101000203166002900480156103875780601f1061035c57610100808354040283529160200191610387565b820191906000526020600020905b81548152906001019060200180831161036a57829003601f168201915b50509850505050505050505060405180910390f35b6000806002541115156103ae57600080fd5b6000821180156103c057506002548211155b15156103cb57600080fd5b60016000838152602001908152602001600020905060008160010160009054906101000a900473ffffffffffffffffffffffffffffffffffffffff1673ffffffffffffffffffffffffffffffffffffffff1614151561042957600080fd5b8060000160009054906101000a900473ffffffffffffffffffffffffffffffffffffffff1673ffffffffffffffffffffffffffffffffffffffff163373ffffffffffffffffffffffffffffffffffffffff161415151561048857600080fd5b80600401543414151561049a57600080fd5b338160010160006101000a81548173ffffffffffffffffffffffffffffffffffffffff021916908373ffffffffffffffffffffffffffffffffffffffff1602179055508060000160009054906101000a900473ffffffffffffffffffffffffffffffffffffffff1673ffffffffffffffffffffffffffffffffffffffff166108fc349081150290604051600060405180830381858888f19350505050151561054157600080fd5b8060010160009054906101000a900473ffffffffffffffffffffffffffffffffffffffff1673ffffffffffffffffffffffffffffffffffffffff168160000160009054906101000a900473ffffffffffffffffffffffffffffffffffffffff1673ffffffffffffffffffffffffffffffffffffffff16837f5d28bc06e6f0c45405abfe77bd77236c767f9bd9d044ae2d954a415a2b4823e084600201856004015460405180806020018381526020018281038252848181546001816001161561010002031660029004815260200191508054600181600116156101000203166002900480156106715780601f1061064657610100808354040283529160200191610671565b820191906000526020600020905b81548152906001019060200180831161065457829003601f168201915b5050935050505060405180910390a45050565b6000809054906101000a900473ffffffffffffffffffffffffffffffffffffffff1673ffffffffffffffffffffffffffffffffffffffff163373ffffffffffffffffffffffffffffffffffffffff161415156106df57600080fd5b6000809054906101000a900473ffffffffffffffffffffffffffffffffffffffff1673ffffffffffffffffffffffffffffffffffffffff16ff5b6000600254905090565b61072b610b2b565b610733610b2b565b60008061073e610b2b565b60006002546040518059106107505750595b9080825280602002602001820160405250945060009350600192505b600254831115156108155760006001600085815260200190815260200160002060010160009054906101000a900473ffffffffffffffffffffffffffffffffffffffff1673ffffffffffffffffffffffffffffffffffffffff16141561080857600160008481526020019081526020016000206005015485858151811015156107f157fe5b906020019060200201818152505083806001019450505b828060010193505061076c565b836040518059106108235750595b908082528060200260200182016040525091505b8381101561088057848181518110151561084d57fe5b90602001906020020151828281518110151561086557fe5b90602001906020020181815250508080600101915050610837565b819550505050505090565b60026000815480929190600101919050555060c0604051908101604052803373ffffffffffffffffffffffffffffffffffffffff168152602001600073ffffffffffffffffffffffffffffffffffffffff16815260200184815260200183815260200182815260200160025481525060016000600254815260200190815260200160002060008201518160000160006101000a81548173ffffffffffffffffffffffffffffffffffffffff021916908373ffffffffffffffffffffffffffffffffffffffff16021790555060208201518160010160006101000a81548173ffffffffffffffffffffffffffffffffffffffff021916908373ffffffffffffffffffffffffffffffffffffffff16021790555060408201518160020190805190602001906109b9929190610b3f565b5060608201518160030190805190602001906109d6929190610b3f565b506080820151816004015560a082015181600501559050503373ffffffffffffffffffffffffffffffffffffffff166002547fe2ebb0c522a8b90a93f45a5dfd3c0e0516b81519fdf199efe51c474642fe8cec85846040518080602001838152602001828103825284818151815260200191508051906020019080838360005b83811015610a71578082015181840152602081019050610a56565b50505050905090810190601f168015610a9e5780820380516001836020036101000a031916815260200191505b50935050505060405180910390a3505050565b60016020528060005260406000206000915090508060000160009054906101000a900473ffffffffffffffffffffffffffffffffffffffff16908060010160009054906101000a900473ffffffffffffffffffffffffffffffffffffffff1690806002019080600301908060040154908060050154905086565b602060405190810160405280600081525090565b828054600181600116156101000203166002900490600052602060002090601f016020900481019282601f10610b8057805160ff1916838001178555610bae565b82800160010185558215610bae579182015b82811115610bad578251825591602001919060010190610b92565b5b509050610bbb9190610bbf565b5090565b610be191905b80821115610bdd576000816000905550600101610bc5565b5090565b905600a165627a7a72305820798eeab18902ce38d82ab79ce07fddd333237f374096db08436a9e5accb831150029",
  "source": "pragma solidity ^0.4.18;\n\nimport \"./Ownable.sol\";\n\n// 'is' is like 'extends' in other languages \n// solidity supports multiple inheritances \ncontract ChainList is Ownable {\n\n    //declaring custom types \n    struct Article{\n        address seller; \n        address buyer; \n        string name; \n        string description; \n        uint256 price;\n        uint256 id; \n    }\n\n    //defining state variables \n    //map with articleID to articles \n\n    //address owner; \n    mapping(uint256 => Article) public articles;\n    uint256 articleCounter;\n\n    // defining events \n    event LogSellArticle(\n        uint256 indexed _id, \n        address indexed _seller, //indexed so we can filter by seller address on client side \n        string _name, \n        uint256 _price\n    );\n\n    event LogBuyArticle (\n        uint256 indexed _id,\n        address indexed _seller, \n        address indexed _buyer,\n        string _name,\n        uint256 _price\n    );\n\n    //function modifier section \n    /*\n    modifier onlyOwner(){\n        require(msg.sender == owner);\n        _;\n    }\n    \n\n    //constructor \n    function ChainList() public{ \n        owner = msg.sender;\n    }\n    */\n\n    //deactivation function \n    //only allow the contract owner to call this function \n    function kill() public onlyOwner {\n        selfdestruct(owner);\n    }\n\n\n    //selling an article \n    function sellArticle(string _name, string _description, uint256 _price) public {\n        //incrementing articleCounter when article is sold \n        articleCounter ++;\n\n        //initializing values in the same order they are declared in the struct \n        articles[articleCounter] = Article(\n            msg.sender,\n            0x0,\n            _name, \n            _description,\n            _price, \n            articleCounter // equals ID \n        );\n\n        LogSellArticle(articleCounter, msg.sender, _name, _price);\n    }\n\n    //buying an article. Event and state variables already defined.\n    //takes index of article to buy \n    function buyArticle(uint256 _id) payable public {\n        //check if there is an article for sale\n        require(articleCounter > 0);\n\n        //id correcsponds to article that exists \n        require(_id > 0 && _id <= articleCounter);\n\n        //*** retrieving the article from the mapping ***\n        Article storage article = articles[_id];\n\n\n        //check if article has already been sold\n        require(article.buyer == 0x0);\n\n        //restrict seller from buying their own article \n        require(msg.sender != article.seller);\n\n        //check if value sent = price of he article \n        require(msg.value == article.price);\n\n        //keeping track of buyer's info \n        article.buyer = msg.sender; \n\n        //buyer can pay seller \n        article.seller.transfer(msg.value);\n\n        LogBuyArticle(_id, article.seller, article.buyer, article.name, article.price);\n    }\n\n\n    //get the total number of articles \n    function getNumOfArticles() public view returns(uint256) {\n        return articleCounter; \n    }\n\n    //get and return all article IDs for articles that are (still) for same \n    function getArticlesForSale() public view returns(uint[]){\n        //preparing output arr \n        uint[] memory articleIDs = new uint[](articleCounter); //creating local memory-only arr the size of articleCounter\n        \n        uint numberOfArticlesForSale = 0; \n\n        for(uint i = 1; i <= articleCounter; i++){\n            //only track the ID is the article is still for sale\n            if(articles[i].buyer == 0x0){\n                articleIDs[numberOfArticlesForSale] = articles[i].id; \n                numberOfArticlesForSale ++; \n            }\n        }\n\n        //copy the articleIDs array into smaller forSale array \n        uint[] memory forSale = new uint[](numberOfArticlesForSale);\n\n        for(uint j; j < numberOfArticlesForSale; j++){\n            forSale[j] = articleIDs[j];\n        }\n\n        return forSale;\n\n    }\n\n\n}",
  "sourcePath": "/Users/maximbelioglo/Maxims-MacBook-Air/Contracts/ChainList/contracts/ChainList.sol",
  "compiler": {
    "name": "solc",
    "version": "0.4.19+commit.c4cbbb05.Emscripten.clang"
  },
  "schemaVersion": "2.0.0",
  "updatedAt": "2022-12-18T21:33:04.752Z"
}